{
  "_format": "hh-sol-artifact-1",
  "contractName": "Cats",
  "sourceName": "contracts/Cats.sol",
  "abi": [
    {
      "inputs": [],
      "stateMutability": "nonpayable",
      "type": "constructor"
    },
    {
      "inputs": [],
      "name": "ApprovalCallerNotOwnerNorApproved",
      "type": "error"
    },
    {
      "inputs": [],
      "name": "ApprovalQueryForNonexistentToken",
      "type": "error"
    },
    {
      "inputs": [],
      "name": "BalanceQueryForZeroAddress",
      "type": "error"
    },
    {
      "inputs": [],
      "name": "MintERC2309QuantityExceedsLimit",
      "type": "error"
    },
    {
      "inputs": [],
      "name": "MintToZeroAddress",
      "type": "error"
    },
    {
      "inputs": [],
      "name": "MintZeroQuantity",
      "type": "error"
    },
    {
      "inputs": [],
      "name": "NotCompatibleWithSpotMints",
      "type": "error"
    },
    {
      "inputs": [],
      "name": "OwnerQueryForNonexistentToken",
      "type": "error"
    },
    {
      "inputs": [],
      "name": "OwnershipNotInitializedForExtraData",
      "type": "error"
    },
    {
      "inputs": [],
      "name": "SequentialMintExceedsLimit",
      "type": "error"
    },
    {
      "inputs": [],
      "name": "SequentialUpToTooSmall",
      "type": "error"
    },
    {
      "inputs": [],
      "name": "SpotMintTokenIdTooSmall",
      "type": "error"
    },
    {
      "inputs": [],
      "name": "TokenAlreadyExists",
      "type": "error"
    },
    {
      "inputs": [],
      "name": "TransferCallerNotOwnerNorApproved",
      "type": "error"
    },
    {
      "inputs": [],
      "name": "TransferFromIncorrectOwner",
      "type": "error"
    },
    {
      "inputs": [],
      "name": "TransferToNonERC721ReceiverImplementer",
      "type": "error"
    },
    {
      "inputs": [],
      "name": "TransferToZeroAddress",
      "type": "error"
    },
    {
      "inputs": [],
      "name": "URIQueryForNonexistentToken",
      "type": "error"
    },
    {
      "anonymous": false,
      "inputs": [
        {
          "indexed": true,
          "internalType": "address",
          "name": "owner",
          "type": "address"
        },
        {
          "indexed": true,
          "internalType": "address",
          "name": "approved",
          "type": "address"
        },
        {
          "indexed": true,
          "internalType": "uint256",
          "name": "tokenId",
          "type": "uint256"
        }
      ],
      "name": "Approval",
      "type": "event"
    },
    {
      "anonymous": false,
      "inputs": [
        {
          "indexed": true,
          "internalType": "address",
          "name": "owner",
          "type": "address"
        },
        {
          "indexed": true,
          "internalType": "address",
          "name": "operator",
          "type": "address"
        },
        {
          "indexed": false,
          "internalType": "bool",
          "name": "approved",
          "type": "bool"
        }
      ],
      "name": "ApprovalForAll",
      "type": "event"
    },
    {
      "anonymous": false,
      "inputs": [
        {
          "indexed": true,
          "internalType": "uint256",
          "name": "fromTokenId",
          "type": "uint256"
        },
        {
          "indexed": false,
          "internalType": "uint256",
          "name": "toTokenId",
          "type": "uint256"
        },
        {
          "indexed": true,
          "internalType": "address",
          "name": "from",
          "type": "address"
        },
        {
          "indexed": true,
          "internalType": "address",
          "name": "to",
          "type": "address"
        }
      ],
      "name": "ConsecutiveTransfer",
      "type": "event"
    },
    {
      "anonymous": false,
      "inputs": [
        {
          "indexed": true,
          "internalType": "address",
          "name": "from",
          "type": "address"
        },
        {
          "indexed": true,
          "internalType": "address",
          "name": "to",
          "type": "address"
        },
        {
          "indexed": true,
          "internalType": "uint256",
          "name": "tokenId",
          "type": "uint256"
        }
      ],
      "name": "Transfer",
      "type": "event"
    },
    {
      "inputs": [
        {
          "internalType": "address",
          "name": "to",
          "type": "address"
        },
        {
          "internalType": "uint256",
          "name": "tokenId",
          "type": "uint256"
        }
      ],
      "name": "approve",
      "outputs": [],
      "stateMutability": "payable",
      "type": "function"
    },
    {
      "inputs": [
        {
          "internalType": "address",
          "name": "owner",
          "type": "address"
        }
      ],
      "name": "balanceOf",
      "outputs": [
        {
          "internalType": "uint256",
          "name": "",
          "type": "uint256"
        }
      ],
      "stateMutability": "view",
      "type": "function"
    },
    {
      "inputs": [
        {
          "internalType": "uint256",
          "name": "tokenId",
          "type": "uint256"
        }
      ],
      "name": "getApproved",
      "outputs": [
        {
          "internalType": "address",
          "name": "",
          "type": "address"
        }
      ],
      "stateMutability": "view",
      "type": "function"
    },
    {
      "inputs": [
        {
          "internalType": "address",
          "name": "owner",
          "type": "address"
        },
        {
          "internalType": "address",
          "name": "operator",
          "type": "address"
        }
      ],
      "name": "isApprovedForAll",
      "outputs": [
        {
          "internalType": "bool",
          "name": "",
          "type": "bool"
        }
      ],
      "stateMutability": "view",
      "type": "function"
    },
    {
      "inputs": [],
      "name": "maxQuantity",
      "outputs": [
        {
          "internalType": "uint256",
          "name": "",
          "type": "uint256"
        }
      ],
      "stateMutability": "view",
      "type": "function"
    },
    {
      "inputs": [
        {
          "internalType": "uint256",
          "name": "quantity",
          "type": "uint256"
        }
      ],
      "name": "mint",
      "outputs": [],
      "stateMutability": "payable",
      "type": "function"
    },
    {
      "inputs": [],
      "name": "name",
      "outputs": [
        {
          "internalType": "string",
          "name": "",
          "type": "string"
        }
      ],
      "stateMutability": "view",
      "type": "function"
    },
    {
      "inputs": [],
      "name": "owner",
      "outputs": [
        {
          "internalType": "address",
          "name": "",
          "type": "address"
        }
      ],
      "stateMutability": "view",
      "type": "function"
    },
    {
      "inputs": [
        {
          "internalType": "uint256",
          "name": "tokenId",
          "type": "uint256"
        }
      ],
      "name": "ownerOf",
      "outputs": [
        {
          "internalType": "address",
          "name": "",
          "type": "address"
        }
      ],
      "stateMutability": "view",
      "type": "function"
    },
    {
      "inputs": [],
      "name": "prompt",
      "outputs": [
        {
          "internalType": "string",
          "name": "",
          "type": "string"
        }
      ],
      "stateMutability": "view",
      "type": "function"
    },
    {
      "inputs": [],
      "name": "promptDescription",
      "outputs": [
        {
          "internalType": "string",
          "name": "",
          "type": "string"
        }
      ],
      "stateMutability": "view",
      "type": "function"
    },
    {
      "inputs": [
        {
          "internalType": "address",
          "name": "from",
          "type": "address"
        },
        {
          "internalType": "address",
          "name": "to",
          "type": "address"
        },
        {
          "internalType": "uint256",
          "name": "tokenId",
          "type": "uint256"
        }
      ],
      "name": "safeTransferFrom",
      "outputs": [],
      "stateMutability": "payable",
      "type": "function"
    },
    {
      "inputs": [
        {
          "internalType": "address",
          "name": "from",
          "type": "address"
        },
        {
          "internalType": "address",
          "name": "to",
          "type": "address"
        },
        {
          "internalType": "uint256",
          "name": "tokenId",
          "type": "uint256"
        },
        {
          "internalType": "bytes",
          "name": "_data",
          "type": "bytes"
        }
      ],
      "name": "safeTransferFrom",
      "outputs": [],
      "stateMutability": "payable",
      "type": "function"
    },
    {
      "inputs": [
        {
          "internalType": "address",
          "name": "operator",
          "type": "address"
        },
        {
          "internalType": "bool",
          "name": "approved",
          "type": "bool"
        }
      ],
      "name": "setApprovalForAll",
      "outputs": [],
      "stateMutability": "nonpayable",
      "type": "function"
    },
    {
      "inputs": [
        {
          "internalType": "bytes4",
          "name": "interfaceId",
          "type": "bytes4"
        }
      ],
      "name": "supportsInterface",
      "outputs": [
        {
          "internalType": "bool",
          "name": "",
          "type": "bool"
        }
      ],
      "stateMutability": "view",
      "type": "function"
    },
    {
      "inputs": [],
      "name": "symbol",
      "outputs": [
        {
          "internalType": "string",
          "name": "",
          "type": "string"
        }
      ],
      "stateMutability": "view",
      "type": "function"
    },
    {
      "inputs": [
        {
          "internalType": "uint256",
          "name": "tokenId",
          "type": "uint256"
        }
      ],
      "name": "tokenURI",
      "outputs": [
        {
          "internalType": "string",
          "name": "",
          "type": "string"
        }
      ],
      "stateMutability": "view",
      "type": "function"
    },
    {
      "inputs": [],
      "name": "totalSupply",
      "outputs": [
        {
          "internalType": "uint256",
          "name": "result",
          "type": "uint256"
        }
      ],
      "stateMutability": "view",
      "type": "function"
    },
    {
      "inputs": [
        {
          "internalType": "address",
          "name": "from",
          "type": "address"
        },
        {
          "internalType": "address",
          "name": "to",
          "type": "address"
        },
        {
          "internalType": "uint256",
          "name": "tokenId",
          "type": "uint256"
        }
      ],
      "name": "transferFrom",
      "outputs": [],
      "stateMutability": "payable",
      "type": "function"
    }
  ],
  "bytecode": "0x60806040526005600a556040518060a00160405280606681526020016200267c60669139600b90816200003391906200044d565b506040518060600160405280602d81526020016200264f602d9139600c90816200005e91906200044d565b503480156200006c57600080fd5b506040518060400160405280600481526020017f43617473000000000000000000000000000000000000000000000000000000008152506040518060400160405280600281526020017f43530000000000000000000000000000000000000000000000000000000000008152508160029081620000ea91906200044d565b508060039081620000fc91906200044d565b506200010d6200019c60201b60201c565b600081905550620001236200019c60201b60201c565b62000133620001a160201b60201c565b101562000153576200015263fed8210f60e01b620001c960201b60201c565b5b505033600960006101000a81548173ffffffffffffffffffffffffffffffffffffffff021916908373ffffffffffffffffffffffffffffffffffffffff16021790555062000534565b600090565b60007fffffffffffffffffffffffffffffffffffffffffffffffffffffffffffffffff905090565b8060005260046000fd5b600081519050919050565b7f4e487b7100000000000000000000000000000000000000000000000000000000600052604160045260246000fd5b7f4e487b7100000000000000000000000000000000000000000000000000000000600052602260045260246000fd5b600060028204905060018216806200025557607f821691505b6020821081036200026b576200026a6200020d565b5b50919050565b60008190508160005260206000209050919050565b60006020601f8301049050919050565b600082821b905092915050565b600060088302620002d57fffffffffffffffffffffffffffffffffffffffffffffffffffffffffffffffff8262000296565b620002e1868362000296565b95508019841693508086168417925050509392505050565b6000819050919050565b6000819050919050565b60006200032e620003286200032284620002f9565b62000303565b620002f9565b9050919050565b6000819050919050565b6200034a836200030d565b62000362620003598262000335565b848454620002a3565b825550505050565b600090565b620003796200036a565b620003868184846200033f565b505050565b5b81811015620003ae57620003a26000826200036f565b6001810190506200038c565b5050565b601f821115620003fd57620003c78162000271565b620003d28462000286565b81016020851015620003e2578190505b620003fa620003f18562000286565b8301826200038b565b50505b505050565b600082821c905092915050565b6000620004226000198460080262000402565b1980831691505092915050565b60006200043d83836200040f565b9150826002028217905092915050565b6200045882620001d3565b67ffffffffffffffff811115620004745762000473620001de565b5b6200048082546200023c565b6200048d828285620003b2565b600060209050601f831160018114620004c55760008415620004b0578287015190505b620004bc85826200042f565b8655506200052c565b601f198416620004d58662000271565b60005b82811015620004ff57848901518255600182019150602085019450602081019050620004d8565b868310156200051f57848901516200051b601f8916826200040f565b8355505b6001600288020188555050505b505050505050565b61210b80620005446000396000f3fe6080604052600436106101145760003560e01c80637c65d711116100a0578063a22cb46511610064578063a22cb4651461037f578063b88d4fde146103a8578063c87b56dd146103c4578063e640cf7d14610401578063e985e9c51461042c57610114565b80637c65d711146102b75780638da5cb5b146102e2578063953637311461030d57806395d89b4114610338578063a0712d681461036357610114565b806318160ddd116100e757806318160ddd146101da57806323b872dd1461020557806342842e0e146102215780636352211e1461023d57806370a082311461027a57610114565b806301ffc9a71461011957806306fdde0314610156578063081812fc14610181578063095ea7b3146101be575b600080fd5b34801561012557600080fd5b50610140600480360381019061013b91906116d9565b610469565b60405161014d9190611721565b60405180910390f35b34801561016257600080fd5b5061016b6104fb565b60405161017891906117cc565b60405180910390f35b34801561018d57600080fd5b506101a860048036038101906101a39190611824565b61058d565b6040516101b59190611892565b60405180910390f35b6101d860048036038101906101d391906118d9565b6105eb565b005b3480156101e657600080fd5b506101ef6105fb565b6040516101fc9190611928565b60405180910390f35b61021f600480360381019061021a9190611943565b610648565b005b61023b60048036038101906102369190611943565b610909565b005b34801561024957600080fd5b50610264600480360381019061025f9190611824565b610929565b6040516102719190611892565b60405180910390f35b34801561028657600080fd5b506102a1600480360381019061029c9190611996565b61093b565b6040516102ae9190611928565b60405180910390f35b3480156102c357600080fd5b506102cc6109d2565b6040516102d991906117cc565b60405180910390f35b3480156102ee57600080fd5b506102f7610a60565b6040516103049190611892565b60405180910390f35b34801561031957600080fd5b50610322610a86565b60405161032f91906117cc565b60405180910390f35b34801561034457600080fd5b5061034d610b18565b60405161035a91906117cc565b60405180910390f35b61037d60048036038101906103789190611824565b610baa565b005b34801561038b57600080fd5b506103a660048036038101906103a191906119ef565b610c9e565b005b6103c260048036038101906103bd9190611b64565b610da9565b005b3480156103d057600080fd5b506103eb60048036038101906103e69190611824565b610dfb565b6040516103f891906117cc565b60405180910390f35b34801561040d57600080fd5b50610416610e77565b6040516104239190611928565b60405180910390f35b34801561043857600080fd5b50610453600480360381019061044e9190611be7565b610e7d565b6040516104609190611721565b60405180910390f35b60006301ffc9a760e01b827bffffffffffffffffffffffffffffffffffffffffffffffffffffffff191614806104c457506380ac58cd60e01b827bffffffffffffffffffffffffffffffffffffffffffffffffffffffff1916145b806104f45750635b5e139f60e01b827bffffffffffffffffffffffffffffffffffffffffffffffffffffffff1916145b9050919050565b60606002805461050a90611c56565b80601f016020809104026020016040519081016040528092919081815260200182805461053690611c56565b80156105835780601f1061055857610100808354040283529160200191610583565b820191906000526020600020905b81548152906001019060200180831161056657829003601f168201915b5050505050905090565b600061059882610f11565b6105ad576105ac63cf4700e460e01b610fbd565b5b6006600083815260200190815260200160002060000160009054906101000a900473ffffffffffffffffffffffffffffffffffffffff169050919050565b6105f782826001610fc7565b5050565b60006106056110f6565b600154600054030390507fffffffffffffffffffffffffffffffffffffffffffffffffffffffffffffffff6106386110fb565b1461064557600854810190505b90565b600061065382611123565b905073ffffffffffffffffffffffffffffffffffffffff8473ffffffffffffffffffffffffffffffffffffffff161693508373ffffffffffffffffffffffffffffffffffffffff168173ffffffffffffffffffffffffffffffffffffffff16146106c8576106c763a114810060e01b610fbd565b5b6000806106d48461123c565b915091506106ea81876106e5611263565b61126b565b610715576106ff866106fa611263565b610e7d565b610714576107136359c896be60e01b610fbd565b5b5b61072286868660016112af565b801561072d57600082555b600560008773ffffffffffffffffffffffffffffffffffffffff1673ffffffffffffffffffffffffffffffffffffffff168152602001908152602001600020600081546001900391905081905550600560008673ffffffffffffffffffffffffffffffffffffffff1673ffffffffffffffffffffffffffffffffffffffff16815260200190815260200160002060008154600101919050819055506107fb856107d78888876112b5565b7c0200000000000000000000000000000000000000000000000000000000176112dd565b600460008681526020019081526020016000208190555060007c0200000000000000000000000000000000000000000000000000000000841603610881576000600185019050600060046000838152602001908152602001600020540361087f57600054811461087e578360046000838152602001908152602001600020819055505b5b505b600073ffffffffffffffffffffffffffffffffffffffff8673ffffffffffffffffffffffffffffffffffffffff161690508481887fddf252ad1be2c89b69c2b068fc378daa952ba7f163c4a11628f55a4df523b3ef600080a4600081036108f3576108f263ea553b3460e01b610fbd565b5b6109008787876001611308565b50505050505050565b61092483838360405180602001604052806000815250610da9565b505050565b600061093482611123565b9050919050565b60008073ffffffffffffffffffffffffffffffffffffffff168273ffffffffffffffffffffffffffffffffffffffff160361098157610980638f4eb60460e01b610fbd565b5b67ffffffffffffffff600560008473ffffffffffffffffffffffffffffffffffffffff1673ffffffffffffffffffffffffffffffffffffffff16815260200190815260200160002054169050919050565b600c80546109df90611c56565b80601f0160208091040260200160405190810160405280929190818152602001828054610a0b90611c56565b8015610a585780601f10610a2d57610100808354040283529160200191610a58565b820191906000526020600020905b815481529060010190602001808311610a3b57829003601f168201915b505050505081565b600960009054906101000a900473ffffffffffffffffffffffffffffffffffffffff1681565b6060600c8054610a9590611c56565b80601f0160208091040260200160405190810160405280929190818152602001828054610ac190611c56565b8015610b0e5780601f10610ae357610100808354040283529160200191610b0e565b820191906000526020600020905b815481529060010190602001808311610af157829003601f168201915b5050505050905090565b606060038054610b2790611c56565b80601f0160208091040260200160405190810160405280929190818152602001828054610b5390611c56565b8015610ba05780601f10610b7557610100808354040283529160200191610ba0565b820191906000526020600020905b815481529060010190602001808311610b8357829003601f168201915b5050505050905090565b600960009054906101000a900473ffffffffffffffffffffffffffffffffffffffff1673ffffffffffffffffffffffffffffffffffffffff163373ffffffffffffffffffffffffffffffffffffffff1614610c3a576040517f08c379a0000000000000000000000000000000000000000000000000000000008152600401610c3190611cf9565b60405180910390fd5b600a5481610c466105fb565b610c509190611d48565b1115610c91576040517f08c379a0000000000000000000000000000000000000000000000000000000008152600401610c8890611dc8565b60405180910390fd5b610c9b338261130e565b50565b8060076000610cab611263565b73ffffffffffffffffffffffffffffffffffffffff1673ffffffffffffffffffffffffffffffffffffffff16815260200190815260200160002060008473ffffffffffffffffffffffffffffffffffffffff1673ffffffffffffffffffffffffffffffffffffffff16815260200190815260200160002060006101000a81548160ff0219169083151502179055508173ffffffffffffffffffffffffffffffffffffffff16610d58611263565b73ffffffffffffffffffffffffffffffffffffffff167f17307eab39ab6107e8899845ad3d59bd9653f200f220920489ca2b5937696c3183604051610d9d9190611721565b60405180910390a35050565b610db4848484610648565b60008373ffffffffffffffffffffffffffffffffffffffff163b14610df557610ddf84848484611494565b610df457610df363d1a57ed660e01b610fbd565b5b5b50505050565b6060610e0682610f11565b610e45576040517f08c379a0000000000000000000000000000000000000000000000000000000008152600401610e3c90611e5a565b60405180910390fd5b600b610e50836115c3565b604051602001610e61929190611f9a565b6040516020818303038152906040529050919050565b600a5481565b6000600760008473ffffffffffffffffffffffffffffffffffffffff1673ffffffffffffffffffffffffffffffffffffffff16815260200190815260200160002060008373ffffffffffffffffffffffffffffffffffffffff1673ffffffffffffffffffffffffffffffffffffffff16815260200190815260200160002060009054906101000a900460ff16905092915050565b600081610f1c6110f6565b11610fb757610f296110fb565b821115610f5357610f4c6004600084815260200190815260200160002054611613565b9050610fb8565b600054821015610fb65760005b6000600460008581526020019081526020016000205491508103610f8f5782610f8890611fc9565b9250610f60565b60007c01000000000000000000000000000000000000000000000000000000008216149150505b5b5b919050565b8060005260046000fd5b6000610fd283610929565b905081801561101457508073ffffffffffffffffffffffffffffffffffffffff16610ffb611263565b73ffffffffffffffffffffffffffffffffffffffff1614155b156110405761102a81611025611263565b610e7d565b61103f5761103e63cfb3b94260e01b610fbd565b5b5b836006600085815260200190815260200160002060000160006101000a81548173ffffffffffffffffffffffffffffffffffffffff021916908373ffffffffffffffffffffffffffffffffffffffff160217905550828473ffffffffffffffffffffffffffffffffffffffff168273ffffffffffffffffffffffffffffffffffffffff167f8c5be1e5ebec7d5bd14f71427d1e84f3dd0314c0f7b2291e5b200ac8c7c3b92560405160405180910390a450505050565b600090565b60007fffffffffffffffffffffffffffffffffffffffffffffffffffffffffffffffff905090565b60008161112e6110f6565b1161122657600460008381526020019081526020016000205490506111516110fb565b8211156111765761116181611613565b6112375761117563df2d9b4260e01b610fbd565b5b600081036111fd5760005482106111985761119763df2d9b4260e01b610fbd565b5b5b600460008360019003935083815260200190815260200160002054905060008103156111f85760007c010000000000000000000000000000000000000000000000000000000082160315611237576111f763df2d9b4260e01b610fbd565b5b611199565b60007c010000000000000000000000000000000000000000000000000000000082160315611237575b61123663df2d9b4260e01b610fbd565b5b919050565b60008060006006600085815260200190815260200160002090508092508254915050915091565b600033905090565b600073ffffffffffffffffffffffffffffffffffffffff8316925073ffffffffffffffffffffffffffffffffffffffff821691508382148383141790509392505050565b50505050565b60008060e883901c905060e86112cc868684611654565b62ffffff16901b9150509392505050565b600073ffffffffffffffffffffffffffffffffffffffff83169250814260a01b178317905092915050565b50505050565b6000805490506000820361132d5761132c63b562e8dd60e01b610fbd565b5b61133a60008483856112af565b61135a8361134b60008660006112b5565b6113548561165d565b176112dd565b6004600083815260200190815260200160002081905550600160406001901b178202600560008573ffffffffffffffffffffffffffffffffffffffff1673ffffffffffffffffffffffffffffffffffffffff16815260200190815260200160002060008282540192505081905550600073ffffffffffffffffffffffffffffffffffffffff8473ffffffffffffffffffffffffffffffffffffffff161690506000810361141257611411632e07630060e01b610fbd565b5b6000838301905060008390506114266110fb565b600183031115611441576114406381647e3a60e01b610fbd565b5b5b808360007fddf252ad1be2c89b69c2b068fc378daa952ba7f163c4a11628f55a4df523b3ef600080a4818160010191508103611442578160008190555050505061148f6000848385611308565b505050565b60008373ffffffffffffffffffffffffffffffffffffffff1663150b7a026114ba611263565b8786866040518563ffffffff1660e01b81526004016114dc9493929190612047565b6020604051808303816000875af192505050801561151857506040513d601f19601f8201168201806040525081019061151591906120a8565b60015b611570573d8060008114611548576040519150601f19603f3d011682016040523d82523d6000602084013e61154d565b606091505b5060008151036115685761156763d1a57ed660e01b610fbd565b5b805181602001fd5b63150b7a0260e01b7bffffffffffffffffffffffffffffffffffffffffffffffffffffffff1916817bffffffffffffffffffffffffffffffffffffffffffffffffffffffff191614915050949350505050565b606060a060405101806040526020810391506000825281835b6001156115fe57600184039350600a81066030018453600a81049050806115dc575b50828103602084039350808452505050919050565b60007c0100000000000000000000000000000000000000000000000000000000821673ffffffffffffffffffffffffffffffffffffffff8316119050919050565b60009392505050565b60006001821460e11b9050919050565b6000604051905090565b600080fd5b600080fd5b60007fffffffff0000000000000000000000000000000000000000000000000000000082169050919050565b6116b681611681565b81146116c157600080fd5b50565b6000813590506116d3816116ad565b92915050565b6000602082840312156116ef576116ee611677565b5b60006116fd848285016116c4565b91505092915050565b60008115159050919050565b61171b81611706565b82525050565b60006020820190506117366000830184611712565b92915050565b600081519050919050565b600082825260208201905092915050565b60005b8381101561177657808201518184015260208101905061175b565b60008484015250505050565b6000601f19601f8301169050919050565b600061179e8261173c565b6117a88185611747565b93506117b8818560208601611758565b6117c181611782565b840191505092915050565b600060208201905081810360008301526117e68184611793565b905092915050565b6000819050919050565b611801816117ee565b811461180c57600080fd5b50565b60008135905061181e816117f8565b92915050565b60006020828403121561183a57611839611677565b5b60006118488482850161180f565b91505092915050565b600073ffffffffffffffffffffffffffffffffffffffff82169050919050565b600061187c82611851565b9050919050565b61188c81611871565b82525050565b60006020820190506118a76000830184611883565b92915050565b6118b681611871565b81146118c157600080fd5b50565b6000813590506118d3816118ad565b92915050565b600080604083850312156118f0576118ef611677565b5b60006118fe858286016118c4565b925050602061190f8582860161180f565b9150509250929050565b611922816117ee565b82525050565b600060208201905061193d6000830184611919565b92915050565b60008060006060848603121561195c5761195b611677565b5b600061196a868287016118c4565b935050602061197b868287016118c4565b925050604061198c8682870161180f565b9150509250925092565b6000602082840312156119ac576119ab611677565b5b60006119ba848285016118c4565b91505092915050565b6119cc81611706565b81146119d757600080fd5b50565b6000813590506119e9816119c3565b92915050565b60008060408385031215611a0657611a05611677565b5b6000611a14858286016118c4565b9250506020611a25858286016119da565b9150509250929050565b600080fd5b600080fd5b7f4e487b7100000000000000000000000000000000000000000000000000000000600052604160045260246000fd5b611a7182611782565b810181811067ffffffffffffffff82111715611a9057611a8f611a39565b5b80604052505050565b6000611aa361166d565b9050611aaf8282611a68565b919050565b600067ffffffffffffffff821115611acf57611ace611a39565b5b611ad882611782565b9050602081019050919050565b82818337600083830152505050565b6000611b07611b0284611ab4565b611a99565b905082815260208101848484011115611b2357611b22611a34565b5b611b2e848285611ae5565b509392505050565b600082601f830112611b4b57611b4a611a2f565b5b8135611b5b848260208601611af4565b91505092915050565b60008060008060808587031215611b7e57611b7d611677565b5b6000611b8c878288016118c4565b9450506020611b9d878288016118c4565b9350506040611bae8782880161180f565b925050606085013567ffffffffffffffff811115611bcf57611bce61167c565b5b611bdb87828801611b36565b91505092959194509250565b60008060408385031215611bfe57611bfd611677565b5b6000611c0c858286016118c4565b9250506020611c1d858286016118c4565b9150509250929050565b7f4e487b7100000000000000000000000000000000000000000000000000000000600052602260045260246000fd5b60006002820490506001821680611c6e57607f821691505b602082108103611c8157611c80611c27565b5b50919050565b7f4f6e6c79206f776e65722063616e20706572666f726d2074686973206163746960008201527f6f6e2e0000000000000000000000000000000000000000000000000000000000602082015250565b6000611ce3602383611747565b9150611cee82611c87565b604082019050919050565b60006020820190508181036000830152611d1281611cd6565b9050919050565b7f4e487b7100000000000000000000000000000000000000000000000000000000600052601160045260246000fd5b6000611d53826117ee565b9150611d5e836117ee565b9250828201905080821115611d7657611d75611d19565b5b92915050565b7f596f752063616e206e6f74206d696e74206d6f7265207468616e203500000000600082015250565b6000611db2601c83611747565b9150611dbd82611d7c565b602082019050919050565b60006020820190508181036000830152611de181611da5565b9050919050565b7f4552433732314d657461646174613a2055524920717565727920666f72206e6f60008201527f6e6578697374656e7420746f6b656e0000000000000000000000000000000000602082015250565b6000611e44602f83611747565b9150611e4f82611de8565b604082019050919050565b60006020820190508181036000830152611e7381611e37565b9050919050565b600081905092915050565b60008190508160005260206000209050919050565b60008154611ea781611c56565b611eb18186611e7a565b94506001821660008114611ecc5760018114611ee157611f14565b60ff1983168652811515820286019350611f14565b611eea85611e85565b60005b83811015611f0c57815481890152600182019150602081019050611eed565b838801955050505b50505092915050565b6000611f288261173c565b611f328185611e7a565b9350611f42818560208601611758565b80840191505092915050565b7f2e6a736f6e000000000000000000000000000000000000000000000000000000600082015250565b6000611f84600583611e7a565b9150611f8f82611f4e565b600582019050919050565b6000611fa68285611e9a565b9150611fb28284611f1d565b9150611fbd82611f77565b91508190509392505050565b6000611fd4826117ee565b915060008203611fe757611fe6611d19565b5b600182039050919050565b600081519050919050565b600082825260208201905092915050565b600061201982611ff2565b6120238185611ffd565b9350612033818560208601611758565b61203c81611782565b840191505092915050565b600060808201905061205c6000830187611883565b6120696020830186611883565b6120766040830185611919565b8181036060830152612088818461200e565b905095945050505050565b6000815190506120a2816116ad565b92915050565b6000602082840312156120be576120bd611677565b5b60006120cc84828501612093565b9150509291505056fea2646970667358221220c980044567181f23d69410dccdbc338007a84ff1d6006fd75decd607eb8654bd64736f6c63430008140033446966666572656e74205479706573204f6620436174204272656564732052657374696e67204f6e20536f666168747470733a2f2f677261792d747261646974696f6e616c2d74617069722d3636322e6d7970696e6174612e636c6f75642f697066732f516d53454e364a5a387a634b5935467a42315764695570314b736d787950474e765842524c775966745734314d732f",
  "linkReferences": {},
  "deployedLinkReferences": {}
}